:020000042000DA
:10000000205901200D030020C91A0020811A002068
:10001000C51A00207B160020DD250020000000000E
:100020000000000000000000000000004D02002061
:100030007F16002000000000A9020020E51E00201D
:100040002703002027030020270300202703002088
:100050002703002027030020270300202703002078
:100060002703002027030020270300202703002068
:100070002703002027030020270300202703002058
:100080002703002027030020270300202703002048
:100090002703002027030020270300202703002038
:1000A0002703002027030020270300202703002028
:1000B0002703002027030020270300202703002018
:1000C0002703002027030020270300202703002008
:1000D00027030020270300205D1F002027030020A6
:1000E00027030020270300202703002027030020E8
:1000F00027030020270300202703002027030020D8
:1001000027030020270300202703002027030020C7
:1001100027030020270300202703002027030020B7
:1001200027030020270300202703002027030020A7
:100130002703002027030020270300202703002097
:100140002703002027030020270300202703002087
:100150002703002027030020270300202703002077
:100160002703002027030020270300202703002067
:100170002703002027030020270300202703002057
:10018000270300202703002000F002F800F04FF8BA
:100190000AA090E8000C82448344AAF10107DA45E2
:1001A00001D100F044F8AFF2090EBAE80F0013F0E5
:1001B000010F18BFFB1A43F0010318470048000065
:1001C00020480000103A24BF78C878C1FAD85207F6
:1001D00024BF30C830C144BF04680C6070470000C1
:1001E0000023002400250026103A28BF78C1FBD840
:1001F000520728BF30C148BF0B607047662904F022
:100200009183642900F0DA80732900F08A84002049
:1002100070471FB504F081FB00F0EEFC04000020E5
:10022000002104F0EDFAE0601FBD10B510BD00F034
:10023000FBFD1146FFF7EDFF02F092FA00F019FE08
:1002400003B4FFF7F2FF03BC02F0E9F92C4B196885
:100250000868B0E8F04F80F30988BFF36F8F4FF064
:10026000000080F311887047000000000848006813
:10027000006880F308884FF0000080F3148862B6AD
:1002800061B6BFF34F8FBFF36F8F00DF00BF00BFBA
:1002900008ED00E0DFF80C00016841F47001016036
:1002A000704700BF88ED00E0EFF30980BFF36F8F68
:1002B000134B1A681EF0100F08BF20ED108A20E9BA
:1002C000F04F106009B44FF0500080F31188BFF375
:1002D0004F8FBFF36F8F03F0D9FB4FF0000080F317
:1002E000118809BC19680868B0E8F04F1EF0100FBB
:1002F00008BFB0EC108A80F30988BFF36F8F704796
:1003000044000120EFF30580704700000948804752
:1003100009480047FEE7FEE7FEE7FEE7FEE7FEE7E7
:10032000FEE7FEE7FEE7FEE704480549054A064BFF
:1003300070470000F51E0020890100202053012095
:100340002059012020550120205501207047000030
:100350000FB4044910B503AA029800F0E7FB10BCE3
:100360005DF814FB2C00012070B50C460546012AEF
:1003700005D02878800600D5EA69002302E0012331
:1003800005E05B1C934202D2E05C0028F9D1A86929
:10039000E618C01AA861286A184428622846AFF3F4
:1003A000008004E0D5E9012114F8010B9047B44224
:1003B000F8D32846AFF3008070BD00002DE9F0416E
:1003C0000646002410687529314616A510D0AFF3F3
:1003D0000080002802DA404213A507E031688A074E
:1003E00001D512A502E0490704D511A5012401E0B9
:1003F000AFF3008000210A2206F1240709E0B0FBD8
:10040000F2FCB0FBF2F302FB1C00303078541846CB
:10041000491C0028F3D123462A463046BDE8F04166
:1004200000F007B9000000002D0000002B000000C4
:10043000200000002DE9F0474FF0000A89460446ED
:10044000C0F820A02046E1688847002876D02528FB
:1004500006D0D4E901219047206A401C2062F1E7D0
:10046000E168204600258847C4F81CA006460027FE
:10047000C4F818A02A2E09D0304602F0C9F838B3C3
:1004800004EB8708303EC8F8186019E059F8041BDF
:10049000204604EB87029161E1688847012F0646F8
:1004A00018D1E069002820DA25F020051DE0D8F8F1
:1004B000180000EB800006EB40003038C8F8180048
:1004C0002046E1688847064602F0A2F80028EED1EF
:1004D000012F0AD02E2E08D12046E16888477F1CC4
:1004E0000646022F45F02005C4DBA069002803DA88
:1004F000404245F00105A061E80701D025F0100554
:10050000B6B1A6F14100192802D8203645F400659D
:100510004A463146204625604D46FFF76FFE58B1EA
:10052000012806D0ED1D25F0070000F1080989E734
:1005300004E005F1040985E730468AE7206ABDE852
:10054000F087032A40F2308010F0030C00F0158091
:1005500011F8013BBCF1020F624498BF11F801CBC6
:1005600000F8013B38BF11F8013BA2F1040298BF2B
:1005700000F801CB38BF00F8013B11F0030300F095
:10058000E782083AC0F0088051F8043B083A51F875
:1005900004CBA0E80810F5E7121D5CBF51F8043B3E
:1005A00040F8043BAFF30080D20724BF11F8013BB1
:1005B00011F801CB48BF11F8012B24BF00F8013B13
:1005C00000F801CB48BF00F8012B704702F0FF0391
:1005D00043EA032242EA024200F0EEBA4FF0000280
:1005E00000B5134694469646203922BFA0E80C5029
:1005F000A0E80C50B1F12001BFF4F7AF090728BF04
:10060000A0E80C5048BF0CC05DF804EB890028BF7F
:1006100040F8042B08BF704748BF20F8022B11F0A8
:10062000804F18BF00F8012B704770477047704724
:1006300070472DE9F0470D4699469246044600F171
:1006400024080168880604D5E06921F010012160C2
:1006500000E00120A84201DD471B00E00027A1695E
:100660007A1902EB0900081AA0612078C00602D4AA
:100670002046AFF30080002608E0D4E901211AF8F3
:1006800006009047206A401C761C20624E45F4DB31
:100690002078C0060AD52046AFF3008006E0D4E9F2
:1006A000012130209047206A401C2062381EA7F1AB
:1006B0000107F4DC07E0D4E9012118F805009047B0
:1006C000206A401C2062281EA5F10105F3DC2046AB
:1006D000AFF300802078000602D50220BDE8F08745
:1006E0000120FBE770472DE9FF4F0C461E464FF0F7
:1006F000FF378BB0D2E90001DDF860800A908A46AE
:10070000C1F30A5505B93D46002108464FF00000E7
:10071000BAF1000F00F4400005DA00EB80004FF45E
:10072000400101EA50004FEA9059B9F1010F00DD94
:10073000B9460A9850EA4A000ED044F61050A5F285
:10074000FF3545432F14B8F1000F1ED07542291E06
:100750001EDDC9F100021CE0B8F1010F4FF00000EE
:1007600001D0302103E0F24305E02154401CB042A7
:10077000FBDB30460022002121540B99C1F8088090
:10078000C1E900200FB0BDE8F08FBD1B6D1CDEE796
:100790004A4600DA694206A800F0D0FA06AB93E8B0
:1007A000070003AB83E8070050460A9900F0AAFB54
:1007B0008DE80700A0F500501F3800900398002D29
:1007C00009DD42F21F014A46084403A90390684626
:1007D00000F009FE08E0A0F500504A461F3803A9C2
:1007E0000390684600F013FE8DE807000004000C3B
:1007F00003D04FF0FF30410800E01046B8F1000F81
:1008000003D00022009215461EE0751E05D400F0AC
:10081000F7F9303262556D1EF9D5B346012208430F
:1008200002D000227F1C04E02078302801D1002271
:100830007F1E002A099786D01DE0112D07DA00F0EF
:10084000DFF9303262556D1C50EA0102F5D10843E0
:1008500002D00098C8B10EE00021681E05E0235CBC
:10086000625C63542254401E491C8142F7DBAB4654
:10087000A81B401E0990002004F80B000B98099A51
:10088000C0F80880C0E9002B7CE711264FF0000873
:1008900059E72DE9F04F88460446D21D22F00701A2
:1008A00091B0D1E90001CDE90A0101F099FE0246BB
:1008B0000B98C00F01D02D2007E02068810701D5DB
:1008C0002B2002E0202101EAC000032A099001D078
:1008D000072A05DB03464146204600F0EFF90BE10D
:1008E0002078800601D5E06900E00620B8F1650FA8
:1008F000814606D0B8F1660F18D0B8F1670F70D1F5
:1009000031E00020B9F1110F009001DB112301E06B
:1009100009F101030AAA01A90CA8FFF7E4FEDDE929
:100920000C70002609F10105834647E001204B4683
:1009300000904FF000470AAA01A90CA8FFF7D3FEC8
:10094000DDE90DB00C995D46002610B909F10100F2
:100950000D18B9EB050003D4C0F1FF3609F101050C
:10096000A5EB09002BE0B9F1010F01DA4FF0010905
:100970000020B9F1110F0090484601DD112300E07D
:1009800003460AAA01A90CA8FFF7ADFEDDE90C7029
:100990004D4600268346207800070AD4AB4500DA8E
:1009A0005D4601A8012D04DD411911F8011C302913
:1009B00007D04F4502DA17F1040F04DA012082460E
:1009C0000FE06D1EEEE7002F02DCED1B3E4403E05E
:1009D000781CA84200DD7D1CB81B00F1010A4FF015
:1009E00000472078000703D4AA4501DB4FF0FF3A07
:1009F0000021B7F1004F0DF143088DF8431024D0CA
:100A000002202B23002F01DA7F422D230A21021E10
:100A1000A0F1010000DC5FB197FBF1FC97FBF1F264
:100A200001FB1C7C17460CF1300C08F801CDEEE7F9
:100A3000A8F1010003702188090501D5452100E0D6
:100A40006521A0F1010800F8011C09980FA9A1EB8C
:100A50000807FF1D00B10120411901EBEA70A169EF
:100A60003844081A401EA0612078C00602D42046EF
:100A7000AFF30080099828B1D4E901219047206A9A
:100A8000401C20622078C00622D52046AFF30080AB
:100A90001EE0002E04DBB34502DD01A8805D00E00E
:100AA0003020D4E901219047206A401C2062761C46
:100AB000AAF101005FEA000A0AD100F09DF8C068BF
:100AC0000168405CD4E901219047206A401C206203
:100AD000281EA5F10105DCDC07E0D4E9012118F8A6
:100AE000010B9047206A401C2062381EA7F10107C5
:100AF000F3DC2046AFF30080032011B043E610B5CD
:100B0000436913B1AFF3008001E0FFF72DFC012032
:100B100010BD127800F124010A7000224A700122EF
:100B2000EDE711684FF0FF32E9E70000074B70B5C1
:100B30000D467B4400F0AFF80446284600F06CF9FF
:100B400010B14FF0FF3070BD204670BDC71B0000D4
:100B500010B5203AC0F00B80B1E81850203AA0E858
:100B60001850B1E81850A0E81850BFF4F5AF5FEA8C
:100B7000027C24BFB1E81850A0E8185044BF18C93F
:100B800018C0BDE810405FEA827C24BF51F8043BE6
:100B900040F8043B08BF7047D20728BF31F8023B3A
:100BA00048BF11F8012B28BF20F8023B48BF00F8CE
:100BB000012B70474FF000020429C0F0128010F0A2
:100BC000030C3FF40DADCCF1040CBCF1020F18BFC7
:100BD00000F8012BA8BF20F8022BA1EB0C01FFF7B6
:100BE000FFBC5FEAC17C24BF00F8012B00F8012B99
:100BF00048BF00F8012B704700487047DC520120C5
:100C000030B5B0F10A024FEA900E71F100034EEADE
:100C1000817EB0EB0E0061EB91014FEA101E4EEAAF
:100C2000017E10EB0E0041EB11114FEA102E4EEA3F
:100C3000016E10EB0E0041EB11214FEA104E4EEA0F
:100C4000014E10EB0E0041EB1141401841F1000143
:100C50004FEAD00040EA41704FEAD10110EB800525
:100C60004FEA810444EA907444EB01046D1944EBAB
:100C70000404521BA3414FF0000348BF0A3200D5C1
:100C800030BD401C41F1000130BD000001694A1C2B
:100C900002610878704700B58FB0CDE901310021BD
:100CA000059105497944CDE9031011466846FFF7DF
:100CB000C1FB0FB000BD0000E5FFFFFF2DE9F041D3
:100CC0001F46044603260168072A01F4006004DB7E
:100CD00008B116A505E016A503E008B115A500E0CA
:100CE00015A521F010002060A069C01EA0610FB101
:100CF000401EA0612046AFF300804FB1D4E901212E
:100D000038469047206A401C2062C01C206206E0E2
:100D1000206AFAE7D4E9012115F8010B9047761E05
:100D2000F8D22046AFF30080BDE8F0814E414E007E
:100D30006E616E00494E4600696E66002DE9F0470F
:100D4000814616468AB0334878440DC88DE80D00B8
:100D500030487844801C03AC0DC884E80D0041F68F
:100D60009B300844372190FBF1F290FBF1F5A5F19F
:100D7000800501FB12041B3C02D56442012000E007
:100D80000020DFF890A080460027FA44AAF1BE0AAE
:100D90000DE0E00709D03246684607EB47010AEB51
:100DA000810100F034FB8DE8070064107F1C002CEB
:100DB000EFD1184F7F44AC3F18E0E80714D007EBA1
:100DC00004100DF1180A90E80E008AE80E00C068C1
:100DD000F04201D198190890324606A903A800F004
:100DE00016FB03AB83E807006D10641C002DE4D1F3
:100DF00032466946B8F1000F03A802D000F0F3FABA
:100E000001E000F004FBC9E90001C9F808200AB0BC
:100E1000BDE8F087583C0000007B00F08000704780
:100E200000487047BC5201207546FFF7F9FFAE46F7
:100E300005006946534620F00700854618B020B5E6
:100E4000FFF772FABDE820404FF000064FF00007B0
:100E50004FF000084FF0000B21F00701AC46ACE862
:100E6000C009ACE8C009ACE8C009ACE8C0098D46CF
:100E7000704710B50446AFF300802046BDE810402F
:100E8000FFF7DEB94FF0013C50F8042B51F8043B5A
:100E90009A4221D1A2EB0C03934313EACC1317D14E
:100EA00050F8042B51F8043B9A4215D1A2EB0C03E5
:100EB000934313EACC130BD150F8042B51F8043BA5
:100EC0009A4209D1A2EB0C03934313EACC13DBD073
:100ED0004FF00000704700BFD01A01BAB1FA81F19B
:100EE00001F0180122FA01F0CB40C1F12001DBB280
:100EF000C0B2C01A2CFA01F3D11A914311EAC311FE
:100F0000E6D170475FEA400C08BF91F0000F4FEA4E
:100F10008C234FEAC12243EA51514FEA1C5018BFBB
:100F200000F5F0404FEA300018BF41F000415FEAA1
:100F30006C5C00F02980BCF1FF3F08BF40F08040AE
:100F40007047130C06BF12044FF0100C4FF0000C4A
:100F5000130E04BF12020CF1080C130F04BF120190
:100F60000CF1040C930F04BF92000CF1020CD30F90
:100F700004BF52000CF1010C11464FF00002A0F129
:100F80001F00A0EB0C00704711F0004F08BF704726
:100F900031F000413FF4D5AF0B0C06BF09044FF010
:100FA000100C4FF0000C0B0E04BF09020CF1080CE2
:100FB0000B0F04BF09010CF1040C8B0F04BF890057
:100FC0000CF1020CCB0F04BF49000CF1010CCCF169
:100FD0002003A0EB0C0022FA03F302FA0CF241EA20
:100FE000030100F10100704720F07F4C80EA03000C
:100FF00023F07F47ACEB070303F57C5300F0004080
:1010000003F1FF032DE980494FEA154B09B44FEA7C
:10101000144325EA0B4E24EA03480FF2042606EB9C
:10102000132749083E785FEA320203FB0667C7F5DB
:10103000000707FB06F64FEA54374FEAD64606F19B
:10104000020607FB066CCCF1005C4FEA1C472CEA59
:10105000074C07FB06F40CFB06F504EB15464FEABC
:10106000961634BF00204FF000404FEAD13706FB00
:1010700007FC4FEA1C4C0CFB0BF7D21B03FB0CF7D5
:1010800061EB07010CFB0EF7B0EB074072EB174268
:101090000CFB08F734BFA2EB0742B2EB074261EB4F
:1010A00017414FEA0C444FEA910706FB07FC4FEA51
:1010B0001C4C0CFB0BF7B0EBC74072EB573203FB39
:1010C0000CF734BFA2EBC742B2EBC74261EB57311A
:1010D0000CFB0EF7B0EBC70072EB57720CFB08F776
:1010E00034BFA2EBC702B2EBC70261EB5771039F9B
:1010F0004FEA816141EA921104EBCC044FEAD13707
:101100004FEA826206FB07FC42EA90124FEA8060D7
:101110004FEA1C4C0CFB0BF7D21B03FB0CF761EBEB
:1011200007010CFB0EF7B0EB074072EB17420CFB0C
:1011300008F734BFA2EB0742B2EB074261EB17415D
:101140004FEA8C554FEA910704EB9C2406FB07FC01
:101150004FEA1C4C0CFB0BF7B0EBC74072EB57325D
:1011600003FB0CF734BFA2EBC742B2EBC74261EB03
:1011700057310CFB0EF7B0EBC70072EB57720CFB4C
:1011800008F734BFA2EBC702B2EBC70261EB57719D
:1011900015EB4C254FEA816141EA92114FEA8262D8
:1011A0004FEAD13742EA901206FB07FC44F10004F3
:1011B0004FEA80604FEA1C4C0CFB0BF7D21B03FB81
:1011C0000CF761EB07010CFB0EF7B0EB074072EB7D
:1011D00017420CFB08F734BFA2EB0742B2EB074201
:1011E00061EB174115EB1C154FEA813141EA924141
:1011F0004FEA823242EA90424FEA80304FEA0C7660
:1012000044F1000448EA03434EEA0B484FF0000E55
:10121000B2EB080C71EB030724BF624639464EEB74
:101220000E0E4FF0000B0018524149414BEB0B0BD7
:10123000B2EB080C71EB03077BF1000B24BF624695
:1012400039464EEB0E0E4FF0000B0018524149414B
:101250004BEB0B0BB2EB080C71EB03077BF1000BB4
:1012600024BF624639464EEB0E0E51EA020718BF04
:1012700046F0010616EB0E7655F1000254F100011E
:1012800003D5BDE88901BDE80088BDE88901BDE856
:101290000048B619524141EB0101A3F10103704727
:1012A00080807F7E7D7C7B7A7978777676757473A3
:1012B000727171706F6E6E6D6C6C6B6A6A69686862
:1012C000676666656464636362616160605F5F5EF8
:1012D0005E5D5D5C5C5B5B5A5A595958585757566E
:1012E00056555555545453535252525151505050D3
:1012F0004F4F4F4E4E4D4D4D4C4C4C4B4B4B4A4A25
:101300004A49494948484847474747464646454568
:1013100045444444444343434342424242414141A1
:10132000002B26D4770021D01CB54FEA370703B431
:101330004FF010004FF010014FF000000FBCBDE85F
:1013400010400BF1010BBBF1010F08BF5FEA17075B
:1013500022BF12F1010211F101014FF0004143F1EE
:10136000000300F0004043EA00007047F9D357083B
:10137000DAE746EA064613F1400F4FEA16461FDD4C
:1013800013F1200FDFBF16430A46002120335B42D2
:10139000C8D0C3F1200746EA064602FA07F74FEA2B
:1013A000164646EA0706C3F1200722FA03F201FABD
:1013B00007F721FA03F14FF0000342EA0702B1E711
:1013C00046EA020646EA06464FEA164646EA01069D
:1013D000BCBF46EA0646360C4FF000034FF0000251
:1013E0004FF000019EE72DE9C048934630B491E8E4
:1013F000380007C831EA400C48BF34EA430C03D533
:10140000FFF7F2FDFFF78CFFF0BCBDE800882DE987
:10141000C048934630B491E8380007C810F0804FB8
:1014200008BF13F0804F03D100F005F8FFF778FFF5
:10143000F0BCBDE8008820F07F4780EA030023F07D
:101440007F4C07EB0C03A3F57C5300F00040A3F1A5
:10145000FE0392F0000F00F0B38095F0000F00F053
:1014600077802DE901494FEA11404FEA144621EAFD
:10147000004800FB06FC24EA064708FB06F607FBCB
:1014800008F800FB07F718EB06484CEB164C4FEA40
:10149000124B18EB07484FEA15464CEB174022EA6F
:1014A0000B4E0BFB06FC25EA06470EFB06F607FB78
:1014B0000EFE0BFB07F71EEB064E4CEB164C4FF0E7
:1014C00000061EEB074E4CEB174B18EB0B0840F1D8
:1014D000000018EB0E0B58EB000840F100008F1ACB
:1014E0004FF000013CBFC943661B14BFB5EB040CB1
:1014F00000213CBFC943F61B4FEA17444EEA8E0E4B
:1015000027EA04454FEA1C4704FB07622CEA074C14
:1015100005FB07F70CFB05F604FB0CFC16EB074676
:1015200042EB174216EB0C4642EB1C421BEB060645
:1015300058EB0202414146EA9E0601D5BDE8018909
:10154000B619524141EB0101A3F10103BDE8018944
:101550004FEA14454FEA114724EA054621EA074CB1
:1015600005FB07F406FB07F70CFB06F105FB0CFC7B
:1015700011EB074144EB17444FEA124711EB0C41C2
:1015800044EB1C4422EA074C05FB07F206FB07F775
:101590000CFB06F605FB0CFC16EB074642EB17426C
:1015A00016EB0C4642EB1C456A1854F1000148BF8B
:1015B0007047B619524141EB0101A3F10103704795
:1015C00095F0000F37D04FEA11424FEA144721EA55
:1015D000024624EA074C02FB07F106FB07F70CFB67
:1015E00006F402FB0CFC14EB074441EB17414FEAF5
:1015F000154714EB0C4441EB1C4125EA074C02FB58
:1016000007F506FB07F70CFB06F602FB0CFC16EBD6
:10161000074645EB174516EB0C4645EB1C421219E5
:1016200051F1000148BF7047B619524141EB010129
:10163000A3F1010370474FEA14454FEA114724EA2A
:10164000054621EA074C05FB07F106FB07F70CFBF3
:1016500006F24FF0000605FB0CFC12EB074241EBD3
:10166000174112EB0C4251EB1C4148BF70479218D6
:1016700041EB0101A3F10103704700BFFEE7704792
:101680002DE9F04104460D4600260027B046544897
:1016900084421DD0534884421AD05348844217D004
:1016A0005248844214D05248844211D05148844256
:1016B0000ED0514884420BD05048844208D0504844
:1016C000844205D04F48844202D04F48844200D122
:1016D00003E0CF214DA000F0A5FF288880B200B123
:1016E00003E0D02149A000F09DFF287940B128797E
:1016F000012805D02879022802D02879032800D1B2
:1017000003E0D12141A000F08DFFE87928B1E8790C
:10171000012802D0E879022800D103E0D2213BA0C1
:1017200000F080FF002657E0012000FA06F7286845
:1017300000EA0708B8454ED12068720003219140A5
:101740008843206028797100884021680843206020
:101750002879012802D02879022830D1687940B14F
:101760006879012805D06879022802D068790328B1
:1017700000D103E0E42125A000F054FFA06872002E
:10178000032191408843A060687971008840A16876
:101790000843A060A87910B1A879012800D103E01E
:1017A000EB211AA000F03EFF61680120B0408143A8
:1017B00061606168A879B04080B201436160E0680F
:1017C0007200032191408843E060E879710088400D
:1017D000E1680843E060761C102EA5D3BDE8F081D7
:1017E000000002400004024000080240000C0240D9
:1017F000001002400014024000180240001C024089
:1018000000200240002402400028024046574C4974
:10181000425C7372635C73746D3332663478785FE4
:101820006770696F2E6300002DE9F04106460D4692
:1018300014460027B846544886421DD05348864275
:101840001AD05348864217D05248864214D0524884
:10185000864211D0514886420ED0514886420BD064
:101860005048864208D05048864205D04F488642AC
:1018700002D04F48864200D104E040F249214DA0F9
:1018800000F0D0FEEDB1012D1BD0022D19D0032D9B
:1018900017D0042D15D0052D13D0062D11D0072DEE
:1018A0000FD0082D0DD0092D0BD00A2D09D00B2DEE
:1018B00007D00C2D05D00D2D03D00E2D01D00F2DEE
:1018C00000D104E040F24A213AA000F0ABFEA4B3FC
:1018D000092C32D08CB384B37CB374B3012C2CD0DC
:1018E0002BD0022C29D028D027D0032C25D0042C93
:1018F00023D022D021D0052C1FD01ED0092C1CD0E3
:10190000062C1AD0092C18D0072C16D015D014D0BC
:10191000082C12D011D010D0092C0ED00DD00A2CCA
:101920000BD00AD00B2C08D00C2C06D005D00D2CD7
:1019300003D00F2C01D00C2C00D104E040F24B213D
:101940001CA000F06FFE6807C00E04FA00F7E91053
:1019500006F1200050F821006907CA0E0F219140BE
:101960008843EA1006F1200141F82200E91006F14F
:10197000200050F8210040EA0708E91006F1200095
:1019800040F82180BDE8F0810000024000040240E0
:1019900000080240000C0240001002400014024007
:1019A00000180240001C02400020024000240240B7
:1019B0000028024046574C49425C7372635C737462
:1019C0006D3332663478785F6770696F2E6300001C
:1019D00070B504460D46184884421DD0174884420D
:1019E0001AD01748844217D01648844214D016489B
:1019F000844211D0154884420ED0154884420BD041
:101A00001448844208D01448844205D013488442C4
:101A100002D01348844200D104E040F29F1111A08B
:101A200000F000FEA8B200B104E04FF4D0710DA0A8
:101A300000F0F8FD258370BD000002400004024064
:101A400000080240000C0240001002400014024056
:101A500000180240001C0240002002400024024006
:101A60000028024046574C49425C7372635C7374B1
:101A70006D3332663478785F6770696F2E6300006B
:101A800000BFFEE71CB50121082000F0ABF84FF4C1
:101A90004050009001208DF8040000208DF80600D1
:101AA00003208DF8050001208DF8070069460448E1
:101AB000FFF7E6FD4FF440510148FFF789FF1CBDD9
:101AC000000C024000BFFEE7704700002DE9F04126
:101AD0000446002500270F26E07810B1E0780128A1
:101AE00000D103E08D2122A000F09CFD6078102839
:101AF00000DA03E08E211EA000F094FDA0781028EB
:101B000000DA03E08F211AA000F08CFDE07818B312
:101B10001C48006800F4E060C0F5E060C0F30725F1
:101B2000C5F10400C7B22E416078B840C5B2A078B4
:101B3000304005432807050E134821784554207886
:101B400000F01F010120884021784911890001F12E
:101B5000E021C1F8000109E0207800F01F01012018
:101B600088400A492278521141F82200BDE8F081EC
:101B700046574C49425C7372635C6D6973632E63B4
:101B8000000000000CED00E000E400E080E100E077
:101B900010B50446B4F5E06F0BD0B4F5C06F08D0B3
:101BA000B4F5A06F05D0B4F5806F02D0B4F5407FD6
:101BB00000D103E0792104A000F034FD0748204360
:101BC0000749086010BD000046574C49425C7372DB
:101BD000635C6D6973632E63000000000000FA050A
:101BE0000CED00E070B504460D461048204008B9E1
:101BF00004B104E040F2F9510DA000F013FD0DB165
:101C0000012D00D104E040F2FB5109A000F00AFDD3
:101C10002DB10E48006820430C49086004E00B48D1
:101C20000068A0430949086070BD000000E80B810E
:101C300046574C49425C7372635C73746D33326611
:101C40003478785F7263632E63000000303802409E
:101C500070B504460D461048204008B904B104E0B0
:101C600040F269610DA000F0DDFC0DB1012D00D145
:101C700004E040F26A6109A000F0D4FC2DB10E48E6
:101C8000006820430C49086004E00B480068A0434A
:101C90000949086070BD00000036010946574C49EB
:101CA000425C7372635C73746D3332663478785F50
:101CB0007263632E6300000040380240F0B50021DB
:101CC00000220024022500260223324F3F6807F03D
:101CD0000C0121B1042905D0082937D105E02E4F88
:101CE000076036E02D4F076033E02A4F3F1F3F6803
:101CF000C7F38056274F3F1F3F6807F03F036EB181
:101D0000264FB7FBF3F7DFF88CC0ACF1040CDCF81E
:101D100000C0CCF3881C07FB0CF40CE01E4FB7FB93
:101D2000F3F7DFF870C0ACF1040CDCF800C0CCF3C2
:101D3000881C07FB0CF4174F3F1F3F68C7F3014790
:101D40007F1C7D00B4FBF5F7076002E0124F0760CF
:101D500000BF00BF0F4F3F6807F0F0010909104FA7
:101D60007A5C0768D74047600A4F3F6807F4E05144
:101D7000890A0B4F7A5C4768D7408760054F3F68F8
:101D800007F46041490B064F7A5C4768D740C7604B
:101D9000F0BD0000083802400024F40000127A0070
:101DA000320001200CB500200190009034480068FA
:101DB00040F480303249086000BF3148006800F4C8
:101DC000003000900198401C0190009818B90198CB
:101DD000B0F5A04FF1D12A48006800F4003010B1EE
:101DE0000120009001E0002000900098012846D1D9
:101DF00023484030006840F080502149403108605D
:101E00002048006840F440401E4908601C480830E3
:101E100000681B49083108600846006840F400402B
:101E200008600846006840F4A05008601648091F82
:101E30000860081F006840F08070091F086000BF3C
:101E40000F48006800F000700028F9D040F20570DB
:101E50000E4908600A480830006820F0030008496D
:101E6000083108600846006840F00200086000BFC2
:101E700003480830006800F00C000828F8D10CBDB9
:101E8000003802400070004008544007003C024007
:101E900010B50446042C01D0601D00B903E0E22116
:101EA0000BA000F0BFFB042C08D14FF0E02000692C
:101EB00040F004004FF0E021086107E04FF0E0201F
:101EC000006920F004004FF0E021086110BD00001F
:101ED00046574C49425C7372635C6D6973632E6351
:101EE0000000000010B502F037FA012801D001F01F
:101EF000C7FE10BD10B51548006840F470001349C6
:101F000008601348006840F0010011490860002093
:101F10000F49083108600E4800680E4908400C4916
:101F200008600D48091D0860081F006820F4802023
:101F3000091F0860002006490C310860FFF732FFD6
:101F40004FF0005001498039086010BD88ED00E075
:101F500000380240FFFFF6FE1030002410B540F2BA
:101F600025511D4800F092F810B31B4800F0F4FA18
:101F7000C4B21A48008800F40040C8B91748008865
:101F800000F4804060B10A2C03D00020134908807F
:101F900020E01248008840F400401049088019E011
:101FA0000D2C06D10D48008840F480400B49088074
:101FB00010E00A480088C0F30D0009490C54074896
:101FC0000088401C0549088008460088C72801DDB4
:101FD0000020088010BD00000044004030000120B7
:101FE000C400012070B504460D461948844214D03F
:101FF0001848844211D0184884420ED017488442B1
:102000000BD01748844208D01648844205D01648A1
:10201000844202D01548844200D104E04FF4D771C5
:1020200013A000F0FFFA0DB1012D00D104E040F241
:10203000AF110FA000F0F6FA25B1A08940F40050CE
:10204000A08104E0A0894DF6FF710840A08170BD19
:10205000001001400044004000480040004C004097
:10206000005000400014014000780040007C004017
:1020700046574C49425C7372635C73746D333266CD
:102080003478785F75736172742E63002DE9F047C0
:1020900004460D4600270026B046B1464448844217
:1020A00014D04448844211D0434884420ED043485F
:1020B00084420BD04248844208D04248844205D032
:1020C0004148844202D04148844200D104E040F2B9
:1020D00067513FA000F0A6FA282D27D040F22770C4
:1020E000854223D040F2266085421FD040F2255021
:1020F00085421BD040F22440854217D040F646006E
:10210000854213D040F66A1085420FD0B5F5587F4E
:102110000CD040F22530854208D0B5F5587F05D067
:10212000B5F5187F02D0B5F5B07F00D104E04FF4CB
:10213000AD6127A000F076FA40F66A10854211D111
:102140001B48844208D01B48844205D01A48844268
:1021500002D01C48844200D104E040F26D511CA022
:1021600000F060FAC5F3421805F01F06012000FADE
:1021700006F6B8F1010F02D1A089064007E0B8F1D8
:10218000020F02D1208A064001E0A08A06402F12E9
:10219000012000FA07F7208807401EB117B14FF061
:1021A000010901E04FF000094846BDE8F087000052
:1021B000001001400044004000480040004C004036
:1021C000005000400014014000780040007C0040B6
:1021D00046574C49425C7372635C73746D3332666C
:1021E0003478785F75736172742E63002DE9F0475F
:1021F00004460D4617464FF00008C246C146002669
:102200003E48844214D03E48844211D03D48844226
:102210000ED03D4884420BD03C48844208D03C4814
:10222000844205D03B48844202D03B48844200D1DE
:1022300004E040F2D44139A000F0F4F9282D19D07F
:1022400040F22770854215D040F22660854211D0B9
:1022500040F2255085420DD040F22440854209D0FD
:1022600040F64600854205D040F66A10854201D00E
:10227000602D00D104E040F2D54128A000F0D2F951
:102280000FB1012F00D104E040F2D64123A000F0AD
:10229000C9F940F66A10854211D11848844208D025
:1022A0001748844205D01748844202D01848844217
:1022B00000D104E040F2DB4118A000F0B3F926465B
:1022C000C5F3421805F01F0A012000FA0AF9B8F117
:1022D000010F01D10C3605E0B8F1020F01D1103623
:1022E00000E0143627B1306840EA0900306003E0AE
:1022F000306820EA09003060BDE8F0870010014036
:102300000044004000480040004C004000500040A5
:102310000014014000780040007C004046574C49C2
:10232000425C7372635C73746D3332663478785FC9
:1023300075736172742E63002DE9FF4705460C46E4
:102340000026B14600BFB0467348854214D073489A
:10235000854211D0724885420ED0724885420BD01A
:102360007148854208D07148854205D07048854241
:1023700002D07048854200D103E0FE216EA000F03B
:1023800051F9206820B173492068884200D203E0E7
:10239000FF2169A000F046F9A08818B1A088B0F527
:1023A000805F00D104E04FF4807163A000F03AF93F
:1023B000E08858B1E088B0F5805F07D0E088B0F5DC
:1023C000005F03D0E088B0F5405F00D104E040F248
:1023D000011159A000F026F9208938B12089B0F503
:1023E000806F03D02089B0F5C06F00D104E04FF4B6
:1023F000817151A000F016F960894FF6F371084021
:1024000010B9608900B104E040F203114AA000F065
:1024100009F9A08958B1A089B0F5807F07D0A089BB
:10242000B0F5007F03D0A089B0F5407F00D104E073
:102430004FF4827140A000F0F5F8A08988B13648C9
:10244000854208D03548854205D03548854202D0BE
:102450003648854200D104E040F2091136A000F070
:10246000E1F82E8A26F44056E08806432E82AE8993
:1024700041F20C608643A0882189084361890843A2
:102480000643AE81AE8A26F44076A0890643AE822A
:102490006846FFF713FC2048854202D02348854256
:1024A00002D1DDF80C9001E0DDF80890A88900F475
:1024B000004040B109EBC90000EB09102168490058
:1024C000B0FBF1F707E009EBC90000EB0910216848
:1024D0008900B0FBF1F76420B7FBF0F0060130098A
:1024E000642101FB1078A88900F4004040B132203B
:1024F00000EBC800B0FBF1F000F00700064308E075
:10250000322000EB08106421B0FBF1F000F00F0066
:1025100006432E81BDE8FF870010014000440040C3
:1025200000480040004C00400050004000140140B2
:1025300000780040007C004046574C49425C737272
:10254000635C73746D3332663478785F757361726F
:10255000742E6300E170720010B504461048844286
:1025600014D01048844211D00F4884420ED00F4836
:1025700084420BD00E48844208D00E48844205D0D5
:102580000D48844202D00D48844200D104E04FF44B
:1025900010710BA000F046F8A088C0F3080010BD31
:1025A000001001400044004000480040004C004042
:1025B000005000400014014000780040007C0040C2
:1025C00046574C49425C7372635C73746D33326678
:1025D0003478785F75736172742E630000BFFEE714
:1025E00003B401984100009850EAC12018BF0420AC
:1025F0004A0D18BF40F0010040F2FF72B2EB515F8C
:1026000008BF40F00200012808BF052002B0704753
:1026100030380A2801D2012070470020704700BFDF
:102620007047000004460D462A46214602A0FDF7E9
:102630008FFE00BFFEE700006173736572745F6612
:1026400061696C656420696E2066696C652025731C
:10265000206174206C696E652025642E0D0A0000CF
:1026600070B504460420FFF713FC0C48047025469F
:102670004FF47A7045430120094908804FF0E0206B
:10268000006940F002004FF0E02108610846456112
:10269000006940F00100086170BD000028000120C1
:1026A0002A0001202DED028B16E00C4890ED000A67
:1026B000DFED0B0A30EE200A80ED000A006802F020
:1026C000BBF841EC180B53EC182B06A0FDF740FEAD
:1026D0004FF47A7001F08AF8E7E70000100001205B
:1026E0000AD7233C666C6F61745F6E756DB5C4D696
:1026F000B5CEAA3A20252E34660D0A0000BF054A41
:10270000128802F04002002AF9D0C2B2014B1B1D10
:102710001A8070470044004009E005480068C04343
:102720000449C1F8B0024FF4FA7001F05FF8F4E721
:10273000B0824142008041420DE00020064908601D
:10274000C82001F053F801200449C1F8B4024FF445
:10275000487001F04BF8F0E7B482414200804142FA
:102760001CB54FF44070FFF713FAA820FFF778FF6D
:102770004FF4E13000F074FEFFF784F906480121C0
:1027800000238022CDE9001004A1074801F0B4FD28
:1027900001F026F900201CBD000001207374617255
:1027A000745F7461736B0000CD3300202DE9F0413C
:1027B00005460E461C4807681C480068001D00F0CE
:1027C000A5FE50B91948006890F82C1001208840E7
:1027D00017490968814316480160681C38B936B149
:1027E00012480168091D134800F0CEFE1AE07C195A
:1027F0000E4800684460BC4207D20C480168091DBD
:102800000D48006800F0A6FE0CE008480168091DAC
:102810000A48006800F09EFE09480068844201D220
:1028200007480460BDE8F081580001204400012001
:102830005C000120800201204C00012048000120A2
:102840007400012010B5044600F0AAFE2448006878
:10285000401C234908602348006840B921480460AF
:102860000846006801280DD100F0D8F90AE01E489A
:10287000006838B91B480068C06AE16A884201D81C
:102880001848046019480068401C18490860084648
:102890000068206494F82C100120884014490968CD
:1028A000084313490860E16A01EB8101114A02EB18
:1028B0008100211D00F068FE00F09CFE0A480068BF
:1028C00068B108480068C06AE16A884207D24FF0E0
:1028D000805009490860BFF34F8FBFF36F8F10BD61
:1028E00054000120440001206000012070000120FC
:1028F0005C000120CC01012004ED00E010B500F0E7
:102900004FFE10480068D0B90F4800F013FE0F4882
:1029100000F010FE0C480E4908600C480D49086094
:1029200000220C210A2001F0C5F90649086008467A
:10293000006820B108A10348006800F01BFF00F008
:1029400059FE10BD8C00012094020120A802012034
:102950008400012088000120546D725100000000A5
:1029600010B516E000F01CFE0C48C068C468201DBD
:1029700000F0CCFD0A480068401E0949086009487B
:102980000068401E0749086000F034FE204600F051
:102990005FF8044800680028E4D110BD6C020120F3
:1029A000540001205000012070B504460D46206CF3
:1029B00070B1216CE0680144E160D4E90210884202
:1029C00001D32168E1602846226CE168FDF7B9FD7A
:1029D00070BD2DE9F04104460F4615464FF0000842
:1029E000A66B206C48B9206800282CD1A06801F0A3
:1029F0006DFD80460020A06025E07DB93946226C3F
:102A00006068FDF79EFD216C606808446060D4E951
:102A10000101884217D32068606014E03946226CB7
:102A2000E068FDF78EFD216CE068411AE1602168E5
:102A3000E068884203D2216CA068411AE160022D4F
:102A400001D106B1761E701CA0634046BDE8F0813E
:102A500010B50446206B00F0EBFD204600F0E8FDC9
:102A600010BD00000146084A126812680AB9012226
:102A700000E000220A600A6822B9034A1268D2689C
:102A8000106800E0002070478400012030B54FF44A
:102A9000A043174800F007042CB1C01D20F0070028
:102AA000134C041B1B1B0246124C22600024114DC8
:102AB0006C60D018083820F007000F4C206000240C
:102AC0000D4D2D686C600C4D2D682C601146441A1C
:102AD0004C60094C24680C60084D4C682C60084D13
:102AE0004C682C604FF00044064D2C6030BD000057
:102AF000BC02012098000120A0000120A8000120B4
:102B0000A4000120B400012000BFFFF729FF064800
:102B100000680128F9D94FF0805004490860BFF3DC
:102B20004F8FBFF36F8FF0E7CC01012004ED00E081
:102B30002DE9F04106460D4617469846069C0DB90C
:102B4000246000E02760E66325640121204601F04F
:102B500003F984F850800020A064BDE8F0812DE9DD
:102B6000F05F82460E4690469B460A9F0C9C4FEAB9
:102B70008801A522206BFDF729FDA8F10100216B3A
:102B800001EB800929F0070909F0070008B90120C5
:102B900000E0002050B900BF502080F31188BFF33F
:102BA0004F8FBFF36F8F00BF00BFFEE786B10025D8
:102BB00007E0715D04F134004155705D00B902E039
:102BC0006D1C0A2DF5D300BF00213D20015502E008
:102BD000002084F83400052F00D30427E762A7649F
:102BE0000020E064201D00F0B2FC04F1180000F0A9
:102BF000AEFC2461C7F10500A0616462002020657D
:102C000084F854005A465146484600F0C9FB2060FB
:102C10000B9808B10B980460BDE8F09F10B5002434
:102C200007E004EB84010F4A02EB810000F082FC14
:102C3000641C052CF5D30C4800F07CFC0B4800F01C
:102C400079FC0B4800F076FC0A4800F073FC0A4857
:102C500000F070FC0448094908600448084908600D
:102C600010BD0000CC0101203002012044020120EF
:102C7000580201206C02012080020120480001203E
:102C80004C00012010B50146164800E000680368BA
:102C90008B42FBD30246436813448B4204D1436802
:102CA0004C682344436001460A464B681344046859
:102CB000A34211D10C4C03682468A34208D04B688E
:102CC0000468646823444B6003681B680B6005E07C
:102CD000054B1B680B6001E003680B60884200D065
:102CE000016010BD98000120A00001202DE9F041F5
:102CF00004460D4616461F464FF0000865602461E5
:102D0000B5420CD8F01BA169884202D34FF00108EC
:102D100011E0211D0948006800F01CFC0BE0BE42D8
:102D200004D2BD4202D34FF0010804E0211D044843
:102D3000006800F00FFC4046BDE8F08188000120EB
:102D40008400012070B5054600F02AFCA86B08B984
:102D5000012400E0002400F04DFC204670BD70B559
:102D6000054600F01DFCA86BE96B884201D10124E7
:102D700000E0002400F03EFC204670BDF1B5009854
:102D8000846C002654B900BF502080F31188BFF333
:102D90004F8FBFF36F8F00BF00BFFEE7A06BE16BEB
:102DA000884201D2012000E0002050B900BF50202D
:102DB00080F31188BFF34F8FBFF36F8F00BF00BF49
:102DC000FEE7A06BE16B88422CD294F945500022BB
:102DD00069462046FFF7FDFD0646681C60B9606A3B
:102DE00008B9012000E00020D8B904F1240001F066
:102DF000CBFBB0B1012614E07F2D01D0012000E013
:102E0000002050B900BF502080F31188BFF34F8FCE
:102E1000BFF36F8F00BF00BFFEE7681C40B284F8AD
:102E2000450000BF3046F8BDF8B505460F461A48C4
:102E30000068C068C468201D00F068FB94F8280092
:102E400000F00400E8B1A06941192B463A4620463B
:102E5000FFF74CFFD8B1002003462A4601460090F8
:102E6000204601F08BFC064656B900BF502080F387
:102E70001188BFF34F8FBFF36F8F00BF00BFFEE716
:102E800005E094F8280020F0010084F8280020468E
:102E9000216A8847F8BD00008400012070B586B023
:102EA0008BE003980028FBDB059C606908B90120D2
:102EB00000E0002010B9201D00F028FB02A800F05F
:102EC000DBF8054603980A2875D2DFE800F009050B
:102ED0000739416306083A4200BF00BF00BF00BF88
:102EE00094F8280040F0010084F828000498A269B2
:102EF000811803462A462046FFF7F8FEF8B120461F
:102F0000216A884794F8280000F00400B8B1002036
:102F100000900498A169421800231946204601F048
:102F20002DFC064656B900BF502080F31188BFF330
:102F30004F8FBFF36F8F00BF00BFFEE700BF3BE0C6
:102F400000BF94F8280020F0010084F8280033E046
:102F500000BF94F8280040F0010084F8280004988D
:102F6000A061A06908B1012000E0002050B900BFB5
:102F7000502080F31188BFF34F8FBFF36F8F00BFD6
:102F800000BFFEE7A06941192B462A462046FFF7FD
:102F9000ADFE11E094F8280000F0020018B92046B8
:102FA00000F046FB05E094F8280020F0010084F8CA
:102FB000280001E0FFE700BF00BF002203A904488A
:102FC000006801F09DF800287FF46BAF06B070BD7B
:102FD0008C000120F8B505460C4600F04FFD684610
:102FE00000F04AF80646009820BB44B9B54206D81E
:102FF00001F016FB31462846FFF716FF1CE03CB1F6
:103000000E480068006808B9012000E0002004466E
:10301000A91B22460A48006800F0C2FB01F000FB31
:1030200050B94FF0805007490860BFF34F8FBFF38E
:103030006F8F01E001F0F4FAF8BD00008800012074
:103040008C00012004ED00E009480068006808B920
:10305000012000E0002020B14FF0FF30054908605A
:1030600005E003480068C0680068024908607047CE
:10307000480001207400012070B5044601F07CF97D
:10308000054607480068854204D200F00BF801208D
:10309000206001E00020206001480560284670BDE6
:1030A000940001202DE9F84334E025480068C06809
:1030B000056823480068C068C468201D00F026FA2F
:1030C0002046216A884794F8280000F0040008B3DD
:1030D000A0694619AE4207D966602461211D1848CF
:1030E000006800F037FA15E0002003462A46014642
:1030F0000090204601F042FB074657B900BF502020
:1031000080F31188BFF34F8FBFF36F8F00BF00BFF5
:10311000FEE700BF0A480068006808B9012000E027
:1031200000200028C1D00648D0F80080054800687B
:10313000034908600348C0F80080BDE8F883000038
:1031400084000120880001200E480068401C08B956
:10315000012000E0002050B900BF502080F311880A
:10316000BFF34F8FBFF36F8F00BF00BFFEE700BFFD
:10317000502080F31188BFF34F8FBFF36F8F00BFD4
:1031800000BFFEE7B800012008B500BF6846FFF7A2
:1031900069FC044620460099FFF71CFFFFF77EFEFE
:1031A000F4E770B5044600F0FBF994F9455019E0D6
:1031B000A06C30B12046FFF7E1FD88B100F0CEFBF6
:1031C0000EE0606A08B9012000E0002038B904F17F
:1031D000240001F0D9F918B100F0C0FB00E003E0D1
:1031E000681E45B2002DE3DC00BFFF2084F84500D7
:1031F00000F000FA00F0D4F994F9445010E020698E
:1032000008B9012000E0002048B904F1100001F0E5
:10321000BBF908B100F0A2FB681E45B200E001E076
:10322000002DECDC00BFFF2084F8440000F0E2F940
:1032300070BD00002DE9F04104464FF0000800F099
:103240001DFC5148006808B9FFF720FC4F48006892
:10325000204000287ED13CB304F10800A04223D9CD
:10326000083404F0070000B304F00700C0F10800C0
:103270002044A04216D904F00700C0F1080004441D
:1032800004F0070008B9012000E0002068B900BF81
:10329000502080F31188BFF34F8FBFF36F8F00BFB3
:1032A00000BFFEE7002400E00024002C54D0384882
:1032B0000068844250D8374E3046056801E02E46FB
:1032C0002D686868A04202D228680028F7D12E48ED
:1032D0000068854240D0306800F1080828683060F6
:1032E0006868001B102819D92F1907F0070008B9C2
:1032F000012000E0002050B900BF502080F3118869
:10330000BFF34F8FBFF36F8F00BF00BFFEE768684A
:10331000001B78606C603846FFF7B4FC1C49686895
:103320000968081A1A490860084600681A490968B5
:10333000884203D216480068174908601349686834
:103340000968084368600020286014480068401C31
:10335000124900E000E0086001F062F908F007009F
:1033600008B9012000E0002050B900BF502080F3D0
:103370001188BFF34F8FBFF36F8F00BF00BFFEE711
:103380004046BDE8F0810000A0000120B40001200B
:10339000A400012098000120A8000120AC00012019
:1033A000001F4FF080730360001F21F001030360D2
:1033B000001F054B036014380260001F6FF002030A
:1033C0000360203870470000493100201CB50446D6
:1033D00000F0E6F81248022100233222CDE9001065
:1033E00010A1134800F088FF124803210023322265
:1033F000CDE9001010A1134800F07EFF124804210F
:1034000000238022CDE9001010A1134800F074FFC2
:103410001248006800F018FA00F0ECF81CBD00003B
:10342000040001206C6564305F7461736B00000000
:1034300019270020080001206C6564315F746173F6
:103440006B000000392700200C000120666C6F61C2
:10345000745F7461736B0000A526002000000120DA
:1034600010B588B0044601210846FEF7BBFB0121D8
:103470004804FEF7EDFB072202212248FEF7D4F9AB
:10348000072203211F48FEF7CFF90C2006900220E7
:103490008DF81C008DF81D0000208DF81E00012005
:1034A0008DF81F0006A91748FEF7EAF802940020DD
:1034B000ADF80C00ADF80E00ADF81000ADF814003A
:1034C0000C20ADF8120002A90F48FEF735FF0121CC
:1034D0000D48FEF787FD012240F225510A48FEF70C
:1034E00085FE26208DF8040003208DF805008DF858
:1034F000060001208DF8070001A8FEF7E7FA08B0E2
:1035000010BD0000000002400044004001460A696E
:10351000D1E901309860D1E90103586050688842D0
:1035200001D188685060002008611068401E10605A
:103530001068704700F1080141604FF0FF31816071
:1035400000F10801C16001610021016070470021A4
:103550000161704710B502460B685C1C0CB910691C
:1035600007E002F1080000E04068446824689C42DB
:10357000FAD944684C604C68A160886041600A6177
:103580001468641C146010BD42684A6093688B60C4
:10359000936859609160086103685B1C0360704721
:1035A00000BF502080F31188BFF34F8FBFF36F8FA0
:1035B00000BF0E480068401C0C49086008460068BF
:1035C000012812D10A480068C0B208B9012000E001
:1035D000002050B900BF502080F31188BFF34F8FF7
:1035E000BFF36F8F00BF00BFFEE77047B800012038
:1035F00004ED00E00D48006850B900BF502080F392
:103600001188BFF34F8FBFF36F8F00BF00BFFEE77E
:1036100006480068401E054908600846006820B951
:10362000002080F3118800BF00BF7047B800012060
:1036300070B506463546002E44D0083D2C4622493A
:1036400060680968084008B1012000E0002050B916
:1036500000BF502080F31188BFF34F8FBFF36F8FEF
:1036600000BF00BFFEE7206808B9012000E000208D
:1036700050B900BF502080F31188BFF34F8FBFF3C4
:103680006F8F00BF00BFFEE70F4960680968084000
:10369000C0B12068B0B90C496068096888436060AF
:1036A00000F0ECF9094960680968084407490860B6
:1036B0002046FFF7E7FA06480068401C0449086006
:1036C00000F0AEFF70BD0000B4000120A400012096
:1036D000B000012000204FF0E02108618861064819
:1036E00000684FF47A71B0FBF1F0401E4FF0E0211A
:1036F00048610720086170471400012070B5FCF78D
:1037000001FE0446102C16D304F1E02090F8F0538B
:1037100015480078854201DB012000E0002050B907
:1037200000BF502080F31188BFF34F8FBFF36F8F1E
:1037300000BF00BFFEE70D48006800F4E0600C49E0
:103740000968884201D8012000E0002050B900BF7C
:10375000502080F31188BFF34F8FBFF36F8F00BFEE
:1037600000BFFEE770BD0000BC0001200CED00E0D2
:10377000C0000120024600200BE0084B53F8303017
:1037800033B9064B43F8301003EBC0035A6002E034
:10379000401C0828F1D300BF704700008C010120B5
:1037A0002DE9F04105460E4617462C46FFF7F8FE78
:1037B00094F94400401C10B9002084F8440094F9A6
:1037C0004500401C10B9002084F84500FFF712FFA7
:1037D000A06B28B93A46314604F1240000F0E0F825
:1037E0002046FFF7DEFCBDE8F081000070B504461E
:1037F0000025D4B11248006808B9012000E000207B
:1038000050B900BF502080F31188BFF34F8FBFF332
:103810006F8F00BF00BFFEE700F030F900212046A7
:10382000FEF7C4FF00F0FCFE05463DB94FF08050A6
:1038300004490860BFF34F8FBFF36F8F70BD000066
:103840008000012004ED00E070B50546FFF7A8FEFA
:1038500015B93248006800E028460446201DFFF7ED
:1038600055FE78B9E06A00EB80002D4951F8200040
:1038700040B994F82C10012088402A4909688143F6
:1038800028480160A06A18B104F11800FFF73EFE55
:1038900025480068401C244908602048006884428C
:1038A00009D1211D2148FFF76FFE21480068401C07
:1038B0001F49086006E01F480068401E1D49086057
:1038C000FFF7C2FBFFF796FE14480068844202D05F
:1038D0002046FFF7BDF818480068E8B10F480068B7
:1038E000844219D11548006808B9012000E0002081
:1038F00050B900BF502080F31188BFF34F8FBFF342
:103900006F8F00BF00BFFEE74FF080500C4908608A
:10391000BFF34F8FBFF36F8F70BD000044000120D5
:10392000CC0101205C000120700001206C0201200C
:10393000500001205400012060000120800001207F
:1039400004ED00E00349096801600349096841602A
:10395000704700006C00012058000120012001493F
:10396000086070476800012070B504460D4654B9E0
:1039700000BF502080F31188BFF34F8FBFF36F8FCC
:1039800000BF00BFFEE70548016818312046FFF779
:10399000E1FD01212846FEF709FF70BD440001202A
:1039A00070B505460E46144655B900BF502080F349
:1039B0001188BFF34F8FBFF36F8F00BF00BFFEE7CB
:1039C0000648016818312846FFF7DEFD0CB14FF0BC
:1039D000FF3621463046FEF7E9FE70BD4400012067
:1039E0001CB51E4800210B468222CDE900101CA107
:1039F0001D4800F081FC0446012C02D100F092FE2B
:103A00000446012C15D100BF502080F31188BFF36C
:103A10004F8FBFF36F8F00BF4FF0FF301349086027
:103A200001201349086000201249086000F074F872
:103A300010E0601C08B1012000E0002050B900BF78
:103A4000502080F31188BFF34F8FBFF36F8F00BFFB
:103A500000BFFEE7084800681CBD00007800012098
:103A600049444C4500000000092B0020740001204F
:103A700060000120580001207C00012002480068FD
:103A8000401C014908607047800001201D48006803
:103A900018B101201C49086032E000201A49086072
:103AA0001A480068B0FA80F0C0F11F0101EB8100F4
:103AB000174A52F8200008B1012000E0002050B958
:103AC00000BF502080F31188BFF34F8FBFF36F8F7B
:103AD00000BF00BFFEE701EB81020D4B03EB82004C
:103AE00042685268426000F108024368934202D182
:103AF0004268526842604268D268064B1A6000BF52
:103B00007047000080000120680001205C00012057
:103B1000CC010120440001201CB5524800685249E4
:103B2000884201D0012000E0002050B900BF5020A1
:103B300080F31188BFF34F8FBFF36F8F00BF00BFBB
:103B4000FEE7484800684849491E884201D00120E4
:103B500000E0002050B900BF502080F31188BFF36F
:103B60004F8FBFF36F8F00BF00BFFEE73F4908468E
:103B700000780190FF200A461070084600780090F7
:103B80009DF8000000F0F0009DF80020904201D167
:103B9000012000E0002050B900BF502080F31188C0
:103BA000BFF34F8FBFF36F8F00BF00BFFEE79DF8DD
:103BB000000000F050002E4A107007202D4A1060BF
:103BC00009E02C480068401E2A4A10609DF8000059
:103BD0004006000E00909DF8000000F08000802854
:103BE000EFD024480068C0F10700042801D101206B
:103BF00000E0002050B900BF502080F31188BFF3CF
:103C00004F8FBFF36F8F00BF00BFFEE719480068FA
:103C10000002184A10601046008800F4E06010604E
:103C2000124A019810700F482030006840F470006C
:103C30000C49203108600846006840F07040086078
:103C4000FFF748FD00200C490860FCF723FB0B48F8
:103C5000006840F0404009490860FCF707FB00207D
:103C60001CBD000000ED00E071C20F4100E400E067
:103C7000BC000120C0000120B800012034EF00E0AA
:103C800010B500BF502080F31188BFF34F8FBFF3F2
:103C90006F8F00BF00F076FB18B14FF080500449E1
:103CA000086000BF002080F3118800BF10BD000035
:103CB00004ED00E02DE9F84306460F4690460EB1AC
:103CC000012000E0002050B900BF502080F311888F
:103CD000BFF34F8FBFF36F8F00BF00BFFEE706FB40
:103CE00007F51FB1B5FBF7F0B04201D1012000E0AC
:103CF000002050B900BF502080F31188BFF34F8FD0
:103D0000BFF36F8F00BF00BFFEE705F15400A8426C
:103D100001D9012000E0002050B900BF502080F3FD
:103D20001188BFF34F8FBFF36F8F00BF00BFFEE757
:103D300005F15400FFF77EFA04464CB1A14609F1A3
:103D4000540943464A46394630460094FEF7F0FE91
:103D50002046BDE8F883000070B505460E462C46A7
:103D600054B900BF502080F31188BFF34F8FBFF3C9
:103D70006F8F00BF00BFFEE7FFF712FCD4E90F1200
:103D8000206801FB0200A0600020A0632068606042
:103D9000E06B401E226C216800FB0211E160FF20F5
:103DA00084F8440084F845009EB9206908B90120D0
:103DB00000E00020A8B904F1100000F0E5FB80B19C
:103DC0004FF0805009490860BFF34F8FBFF36F8FEA
:103DD00007E004F11000FFF7ADFB04F12400FFF74A
:103DE000A9FBFFF707FC012070BD000004ED00E017
:103DF0002DE9FF4782B0064688461D464FF0000970
:103E0000344654B900BF502080F31188BFF34F8F60
:103E1000BFF36F8F00BF00BFFEE7B8F1000F01D105
:103E2000206C08B9012000E0002050B900BF5020EC
:103E300080F31188BFF34F8FBFF36F8F00BF00BFB8
:103E4000FEE7022D02D1E06B012801D1012000E044
:103E5000002050B900BF502080F31188BFF34F8F6E
:103E6000BFF36F8F00BF00BFFEE700F075FA08B91F
:103E7000049808B9012000E0002050B900BF50208C
:103E800080F31188BFF34F8FBFF36F8F00BF00BF68
:103E9000FEE700BFFFF784FBA06BE16B884201D314
:103EA000022D3ED1D4F838A02A4641462046FEF7DE
:103EB00090FD0746A06C88B1022D02D1BAF1000F27
:103EC00029D12046FEF75AFF28B34FF080503D49D4
:103ED0000860BFF34F8FBFF36F8F1CE0606A08B9B3
:103EE000012000E0002068B904F1240000F04CFB40
:103EF00088B14FF0805033490860BFF34F8FBFF354
:103F00006F8F08E03FB14FF080502E490860BFF33B
:103F10004F8FBFF36F8FFFF76DFB012006B0BDE839
:103F2000F087049818B9FFF765FB0020F6E7B9F1B0
:103F3000000F04D16846FFF705FD4FF00109FFF7B8
:103F400059FBFFF79BFDFFF72BFB94F94400401C46
:103F500010B9002084F8440094F94500401C10B9C1
:103F6000002084F84500FFF745FB04A9684600F0EF
:103F70007BF9F8B92046FEF7F2FEA8B104F1100073
:103F80000499FFF7F1FC2046FFF70BF900F048FB1E
:103F900000287FF47FAF4FF080500A490860BFF3DC
:103FA0004F8FBFF36F8F75E72046FFF7FAF800F0E9
:103FB00037FB6FE72046FFF7F4F800F031FB0020F5
:103FC000ACE7000004ED00E02DE9F84F80468B4699
:103FD00015461E46444654B900BF502080F3118850
:103FE000BFF34F8FBFF36F8F00BF00BFFEE7BBF182
:103FF000000F01D1206C08B9012000E0002050B969
:1040000000BF502080F31188BFF34F8FBFF36F8F35
:1040100000BF00BFFEE7022E02D1E06B012801D1F4
:10402000012000E0002050B900BF502080F311882B
:10403000BFF34F8FBFF36F8F00BF00BFFEE7FFF7E7
:104040005DFB00BF5021EFF3118081F31188BFF3B6
:104050004F8FBFF36F8F00BF0746A06BE16B8842A5
:1040600001D3022E42D194F945A0A06B00903246B4
:1040700059462046FEF7ADFC0AF10100E0B9A06CFC
:1040800058B1022E01D1009868BB2046FEF776FE9B
:1040900048B345B30120286025E0606A08B90120D3
:1040A00000E00020F8B904F1240000F06DFAD0B16E
:1040B000CDB10120286016E0BAF17F0F01D00120B8
:1040C00000E0002050B900BF502080F31188BFF3FA
:1040D0004F8FBFF36F8F00BF00BFFEE70AF10100F3
:1040E00040B284F845004FF0010901E04FF00009AB
:1040F00000BF87F3118800BF4846BDE8F88F000075
:104100002DE9F74183B005460E464FF000082C46D6
:1041100054B900BF502080F31188BFF34F8FBFF315
:104120006F8F00BF00BFFEE70EB9206C08B90120F9
:1041300000E0002050B900BF502080F31188BFF389
:104140004F8FBFF36F8F00BF00BFFEE700F004F991
:1041500008B9059808B9012000E0002050B900BF57
:10416000502080F31188BFF34F8FBFF36F8F00BFD4
:1041700000BFFEE700BFFFF713FAA76BF7B13146A8
:104180002046FEF711FC781EA063206908B90120C3
:1041900000E0002060B904F1100000F0F5F938B13A
:1041A0004FF080502F490860BFF34F8FBFF36F8FE0
:1041B000FFF720FA012006B0BDE8F081059818B994
:1041C000FFF718FA0020F6E7B8F1000F04D101A8B4
:1041D000FFF7B8FB4FF00108FFF70CFAFFF74EFCB2
:1041E000FFF7DEF994F94400401C10B9002084F870
:1041F000440094F94500401C10B9002084F84500A3
:10420000FFF7F8F905A901A800F02EF8F0B920464B
:10421000FEF798FDA0B104F124000599FFF7A4FB77
:104220002046FEF7BEFF00F0FBF90028A3D14FF0B7
:1042300080500C490860BFF34F8FBFF36F8F9AE730
:104240002046FEF7AEFF00F0EBF994E72046FEF7BC
:10425000A8FF00F0E5F92046FEF774FD00288AD09B
:104260000020A8E704ED00E070B505460C4655B9FE
:1042700000BF502080F31188BFF34F8FBFF36F8FC3
:1042800000BF00BFFEE754B900BF502080F3118883
:10429000BFF34F8FBFF36F8F00BF00BFFEE7FFF785
:1042A0007FF9134802686868131A2068401C08B92F
:1042B000002619E00F4928680968884206D0686816
:1042C000904203D80126002020600DE0206898422B
:1042D00007D92068C01A20602846FFF733FB002664
:1042E00002E0002020600126FFF784F9304670BD0F
:1042F000580001206C0001202DE9FF4F85B0804659
:1043000089461746DDE912ABB800FEF793FF064673
:1043100056B15820FEF78EFF04460CB1266304E028
:104320003046FFF785F900E000247CB10020CDE99C
:1043300000ABCDE902403A4649464046089BFEF7AD
:104340000EFC2046FEF77EFA012501E04FF0FF3516
:10435000284609B0BDE8F08F0549096809B9012070
:1043600005E00449096809B9022000E0002070470F
:1043700060000120800001200149086870470000AA
:10438000580001202DE9F0414FF000084448006832
:1043900000287CD143480068451C4248056015BB95
:1043A00041480068006808B9012000E0002050B9C9
:1043B00000BF502080F31188BFF34F8FBFF36F8F82
:1043C00000BF00BFFEE73848076838480068364934
:1043D00008603648076036480068401C3449086069
:1043E000FEF732FE00BF3348006885423CD300BF71
:1043F0002D480068006808B9012000E0002020B1C5
:104400004FF0FF302B4908602DE027480068C06856
:10441000C4686668B54202D22648066023E0201DC3
:10442000FFF774F8A06A18B104F11800FFF76EF8EE
:1044300094F82C10012088401F49096808431E4940
:104440000860E16A01EB81011C4A02EB8100211D39
:10445000FFF79AF81A49E06A0968C96A8842C7D31F
:104460004FF00108C4E700BF15480068C06A00EBC0
:104470008000124951F82000012801D94FF00108AD
:104480001048006808B14FF0010805E0FFE70E484A
:104490000068401C0C4908604046BDE8F0810000FF
:1044A0008000012058000120480001204C0001201C
:1044B0006C000120740001205C000120CC0101206F
:1044C00044000120680001206400012070B5054609
:1044D0002C460026002D4ED028480068844201D189
:1044E000012000E0002050B900BF502080F3118867
:1044F000BFF34F8FBFF36F8F00BF00BFFEE7E06CCD
:1045000050B900BF502080F31188BFF34F8FBFF325
:104510006F8F00BF00BFFEE7E06C401EE064A16C3F
:10452000E06A884227D0E06C28BB201DFEF7EEFF32
:1045300040B994F82C100120884011490968814342
:104540000F480160A06CE062E06AC0F10500A06164
:1045500094F82C100120884009490968084308494B
:104560000860E16A01EB8101064A02EB8100211D2E
:10457000FFF70AF80126304670BD00004400012014
:104580005C000120CC01012070B50646F068C468CB
:1045900054B900BF502080F31188BFF34F8FBFF391
:1045A0006F8F00BF00BFFEE704F11800FEF7AEFFFB
:1045B00015480068A8B9201DFEF7A8FF94F82C1034
:1045C0000120884011490968084310490860E16AE0
:1045D00001EB81010E4A02EB8100211DFEF7D4FFA1
:1045E00004E004F118010B48FEF7CEFF0A49E06A27
:1045F0000968C96A884204D9012501200749086071
:1046000000E00025284670BD800001205C000120EC
:10461000CC01012058020120440001206800012043
:1046200070B5002400263648006850B900BF5020FD
:1046300080F31188BFF34F8FBFF36F8F00BF00BFB0
:10464000FEE7FEF7ADFF2E480068401E2C490860CB
:104650000846006800284FD12A48006800284BD03F
:1046600024E02948C068C46804F11800FEF74EFF32
:10467000201DFEF74BFF94F82C10012088402349A1
:104680000968084321490860E16A01EB8101204A79
:1046900002EB8100211DFEF777FF1E49E06A0968E1
:1046A000C96A884202D301201B4908601648006885
:1046B00008B9012000E000200028D2D00CB1FEF79C
:1046C000C3FC1648056865B100BFFFF75BFE10B17B
:1046D0000120114908606D1E002DF6D100200F4900
:1046E00008600D48006838B1012630070C490860A1
:1046F000BFF34F8FBFF36F8FFEF77CFF304670BD67
:104700008000012054000120580201205C0001209B
:10471000CC01012044000120680001206400012038
:1047200004ED00E01CB50024FEF7E8F80E48006830
:1047300058B10E48022100234FF48272CDE90010D7
:104740000BA10D48FFF7D8FD044654B900BF502017
:1047500080F31188BFF34F8FBFF36F8F00BF00BF8F
:10476000FEE720461CBD00008C00012090000120C7
:10477000546D722053766300893100202DE9FE4389
:1047800004460D4616461F46DDF828804FF0000906
:1047900054B900BF502080F31188BFF34F8FBFF38F
:1047A0006F8F00BF00BFFEE71448006810B300958C
:1047B00001960294062D15DAFFF7CEFD022808D1E6
:1047C0000023424669460D480068FFF711FB814609
:1047D00010E000231A46694608480068FFF708FB06
:1047E000814607E000233A46694604480068FFF71F
:1047F000EBFB81464846BDE8FE8300008C000120AB
:1048000010B500290AD00878002807D00548784458
:10481000FCF738FB002801D0002010BD0248784486
:1048200010BD0000CE010000C60100000808A0F580
:1048300000114FEA3101704743004FEAD30C4FEAB1
:104840003C0C43401FBF40070CF1605113F0FE4F7A
:1048500070471CF0006F03D100200CF0004170473E
:104860000CF0004343EA507010B540EACC0000F071
:104870000EF800BF000000924FEA0001FFF7D6BF1C
:104880004FF000414FF00000A1F5002170470EF1FC
:10489000020E2EF0030E5EF8044B244204D44FEABD
:1048A0004102B2F17F4F11D84FEA4003B3F17F4F7D
:1048B0000CD80ED14FEAD07CB2F17F4F0CEB4C0CF0
:1048C0000CF1020C08BF4CEBD17C04E04FF0080C5B
:1048D00001E04FEAD17C0CEB4C0324FA03F404F022
:1048E0000704B4F1040C06D20EEB840CBDE81040B2
:1048F0004CF0010C6047DFE80CF0070802024FF0B3
:104900000040A0F5800010BD0846420018BFD2F15B
:10491000807288BF00F0004010BD4FF04070E1EEA3
:10492000100A7047FBF7B5BF02400000000000A06E
:104930000000000005400000000000C8000000006A
:104940000C4000000000409C0000000019400000E6
:104950000020BCBE0000000034400000BFC91B8E18
:1049600000000004B5400000504BCFD06607E2CFF6
:10497000010000006C4100003E8251AADFEEA73426
:1049800001000000D9420000DCB5A0E23A301F97D8
:10499000FFFFFFFFB4450000FD25A0C8E9A3C14FFC
:1049A000FFFFFFFFFF3F000000000080000000004D
:1049B000FF3F00000000008000000000F8490020D8
:1049C00000000120C4000000C4010020BC4A0020F7
:1049D000C40001205C580000E00100201C00000021
:1049E00043000000F8FFFFFF0C0000000E00000075
:1049F0000F0000002E00000000000000000000007A
:104A0000000000000000000000000000007A030A1F
:104A1000000000000000000001020304060708096E
:104A20000000000000000000000000000000010283
:104A30000304010203040607080900000000000047
:104A40000000000000000000000000000000000066
:104A50000000000000000000000000000000000056
:104A60000000000000000000000000000000000046
:104A70000000000004000000000000000000000032
:104A80000000000000000000000000000000000026
:104A90000000000000000000000000000000000016
:104AA0000000000000000000000000000000000006
:0C4AB000AAAAAAAA000000000000000052
:04000005200001894D
:00000001FF
