:020000040800F2
:10000000100800202D02000801080008B9070008A8
:10001000FD070008B50300085F0D000800000000A0
:10002000000000000000000000000000BD09000802
:10003000D90600080000000091080008D50A000851
:10004000470200084702000847020008470200086C
:10005000470200084702000847020008470200085C
:10006000470200084702000847020008470200084C
:10007000470200084702000847020008470200083C
:10008000470200084702000847020008470200082C
:10009000470200084702000847020008470200081C
:1000A000470200084702000847020008470200080C
:1000B00047020008470200084702000847020008FC
:1000C00047020008470200084702000847020008EC
:1000D0004702000847020008410B000847020008D9
:1000E00047020008470200084702000847020008CC
:1000F00047020008470200084702000847020008BC
:1001000047020008470200084702000847020008AB
:10011000470200084702000847020008470200089B
:10012000470200084702000847020008470200088B
:10013000470200084702000847020008470200087B
:10014000470200084702000847020008470200086B
:10015000470200084702000847020008470200085B
:10016000470200084702000847020008470200084B
:10017000470200084702000847020008470200083B
:10018000470200084702000800F002F800F03EF8BD
:100190000AA090E8000C82448344AAF10107DA45E2
:1001A00001D100F033F8AFF2090EBAE80F0013F0F6
:1001B000010F18BFFB1A43F001031847500E00004F
:1001C000800E0000103A24BF78C878C1FAD85207D0
:1001D00024BF30C830C144BF04680C6070470000C1
:1001E0000023002400250026103A28BF78C1FBD840
:1001F000520728BF30C148BF0B60704700207047CE
:100200001FB500F0FDFE1FBD10B510BD00F0A2F837
:100210001146FFF7F5FF00F015FE00F0C0F803B43B
:10022000FFF7F2FF03BC00F09CFD00000948804787
:1002300009480047FEE7FEE7FEE7FEE7FEE7FEE7C8
:10024000FEE7FEE7FEE7FEE704480549054A064BE0
:1002500070470000D90A0008890100081002002038
:100260001008002010040020100400207047000037
:100270000FB4044910B503AA029800F03DF810BC71
:100280005DF814FB040000202DE9F0410E46044601
:10029000002020622046E168884730B3252805D039
:1002A000D4E901219047206A401CF2E7E16820462A
:1002B00000278847050018D0A5F14100192802D869
:1002C00020354FF400673246294620462760FFF765
:1002D00095FF40B1012804D0F61D26F00706083628
:1002E000D8E7361DD6E72846DAE7206ABDE8F08170
:1002F0007047704770477047074B70B50D467B4499
:1003000000F011F80446284600F020F810B14FF034
:10031000FF3070BD204670BD270B000001694A1CEC
:1003200002610878704700B58FB0CDE90131002136
:10033000059105497944CDE9031011466846FFF758
:10034000A3FF0FB000BD0000E5FFFFFF007B00F042
:1003500080007047754600F029F8AE4605006946F2
:10036000534620F00700854618B020B5FFF76CFF14
:10037000BDE820404FF000064FF000074FF00008A6
:100380004FF0000B21F00701AC46ACE8C009ACE827
:10039000C009ACE8C009ACE8C0098D467047044606
:1003A000AFF300802046FFF73AFF00000048704797
:1003B000AC01002000BFFEE72DE9F0418AB0044601
:1003C0000D4616461F46DDF8408037480078401C31
:1003D0003549087035480078401C34490870344865
:1003E0000078401C324908700121084600F052FA9A
:1003F0000121480600F05EFA4FF4C0500890022038
:100400008DF8240000208DF8260003208DF82500AB
:1004100001208DF8270008A9264800F05EF909227E
:100420000B21244800F0A1F909220C21214800F0F9
:100430009CF900208DF81A008DF81B008DF81C0027
:1004400001208DF81D0000208DF81E008DF81F0082
:100450008DF816808DF817408DF818608DF81950BA
:10046000ADF8147005A9144800F0ACF800208DF820
:100470000E008DF80F0001208DF810000020ADF85F
:100480000400ADF80600ADF80800ADF80A00ADF8BC
:100490000C0001208DF8110001A800F00FF80020D9
:1004A0000AB0BDE8F0810000000000101C00002030
:1004B00080000020000002400064004010B50021D0
:1004C000837A012202FA03F13D4A126842F00102E6
:1004D0003B4B1A603A4A1C3212688A43384B1C3331
:1004E0001A60027BCAB9364A0C3212688A43344B0E
:1004F0000C331A604288C38842EA0343304A4032D0
:10050000847A42F834300288838842EA03432C4AD2
:100510004032847A02EBC4025360027B012A19D173
:10052000274A0C3212680A43254B0C331A60428862
:10053000038842EA0343224A4032847A42F8343044
:10054000C288838842EA03431D4A4032847A02EB20
:10055000C4025360C27A3AB9194A121D12688A431A
:10056000174B1B1D1A6006E0154A121D12680A433C
:10057000134B1B1D1A60028932B9114A14321268DA
:100580008A430F4B14331A600289012A06D10C4AA0
:10059000143212680A430A4B14331A60427B012A50
:1005A00006D1074A1C3212680A43054B1C331A60F5
:1005B000034A126822F00102014B1A6010BD0000CC
:1005C0000066004030B5024600200023146824F085
:1005D00002041460146844F00104146000E05B1C21
:1005E000546804F001041CB94FF6FF74A342F6D11D
:1005F000546804F001040CB900206CE08C79012CE3
:1006000004D1146844F08004146003E0146824F0FA
:1006100080041460CC79012C04D1146844F04004A7
:10062000146003E0146824F0400414600C7A012C78
:1006300004D1146844F02004146003E0146824F02A
:10064000200414604C7A012C04D1146844F0100486
:10065000146003E0146824F0100414608C7A012CF8
:1006600004D1146844F00804146003E0146824F012
:1006700008041460CC7A012C04D1146844F00404FA
:10068000146003E0146824F0040414608C78A40758
:10069000CD7844EA05640D7944EA05444D7944EA8D
:1006A00005540D886D1E2C43D461146824F0010498
:1006B0001460002300E05B1C546804F001041CB1CA
:1006C0004FF6FF74A342F6D1546804F001040CB154
:1006D000002000E0012030BD7047F0B50A4600213F
:1006E0000023002400BF3DE0012505FA01F3156851
:1006F00005EA03049C4234D105684F000326BE403E
:10070000B543056015794E00B54006683543056070
:100710001579012D02D01579022D16D185684F006B
:100720000326BE40B543856055794E00B5408668C6
:1007300035438560456801268E40B5434560456870
:1007400096798E40B6B235434560C5684F000326A2
:10075000BE40B543C560D5794E00B540C668354347
:10076000C560491C1029BFD3F0BDF0B5002300249B
:100770004D07ED0E02FA05F3CE1000F1200555F8F5
:1007800026504E07F70E0F26BE40B543CF1000F19E
:10079000200646F82750CE1000F1200555F82650C7
:1007A00045EA0304CE1000F1200545F82640F0BDCF
:1007B000418370470183704700BFFEE71CB50121EC
:1007C000082000F067F84FF44050009001208DF8A9
:1007D000040000208DF8060003208DF8050001209C
:1007E0008DF8070069460448FFF777FF4FF4405142
:1007F0000148FFF7DFFF1CBD000C024000BFFEE711
:100800007047000070B5002100230F22C4781CB38C
:10081000174C246804F4E064C4F5E064C4F30721D1
:10082000C1F10404E3B20A4144789C40E1B2847807
:10083000144021430C07210E0E4C057861550478B5
:1008400004F01F050124AC4005786D11AD0005F1E1
:10085000E025C5F8004109E0047804F01F050124F3
:10086000AC40054D0678761145F8264070BD000075
:100870000CED00E000E400E080E100E0024901430B
:10088000024A1160704700000000FA050CED00E01C
:100890007047000029B1064A12680243044B1A60EF
:1008A00004E0034A12688243014B1A60704700005B
:1008B0003038024029B1064A12680243044B1A60DC
:1008C00004E0034A12688243014B1A60704700003B
:1008D00040380240F0B50021002200240225002605
:1008E0000223324F3F6807F00C0121B1042905D0E3
:1008F000082937D105E02E4F076036E02D4F0760FD
:1009000033E02A4F3F1F3F68C7F38056274F3F1FF2
:100910003F6807F03F036EB1264FB7FBF3F7DFF8F0
:100920008CC0ACF1040CDCF800C0CCF3881C07FBD5
:100930000CF40CE01E4FB7FBF3F7DFF870C0ACF11E
:10094000040CDCF800C0CCF3881C07FB0CF4174F38
:100950003F1F3F68C7F301477F1C7D00B4FBF5F7DD
:10096000076002E0124F076000BF00BF0F4F3F68F3
:1009700007F0F0010909104F7A5C0768D74047601B
:100980000A4F3F6807F4E051890A0B4F7A5C4768C9
:10099000D7408760054F3F6807F46041490B064F19
:1009A0007A5C4768D740C760F0BD00000838024055
:1009B0000024F40000127A000A00002070470000B2
:1009C0000CB50020019000903448006840F480305D
:1009D0003249086000BF3148006800F400300090E0
:1009E0000198401C0190009818B90198B0F5A04FEB
:1009F000F1D12A48006800F4003010B101200090C5
:100A000001E0002000900098012846D123484030A2
:100A1000006840F08050214940310860204800685B
:100A200040F440401E4908601C48083000681B49DB
:100A3000083108600846006840F400400860084635
:100A4000006840F4A05008601648091F0860081F9D
:100A5000006840F08070091F086000BF0F48006800
:100A600000F000700028F9D040F205700E490860CF
:100A70000A480830006820F003000849083108607F
:100A80000846006840F00200086000BF03480830D4
:100A9000006800F00C000828F8D10CBD00380240B6
:100AA0000070004008544007003C0240042808D170
:100AB0004FF0E021096941F004014FF0E02211619B
:100AC00007E04FF0E021096921F004014FF0E02236
:100AD000116170477047000010B51548006840F478
:100AE0007000134908601348006840F00100114984
:100AF000086000200F49083108600E4800680E4960
:100B000008400C4908600D48091D0860081F00686E
:100B100020F48020091F0860002006490C3108607D
:100B2000FFF74EFF4FF0006001498039086010BDAB
:100B300088ED00E000380240FFFFF6FE1030002490
:100B400010B540F225511D4800F04AF810B31B487B
:100B500000F000F9C4B21A48008800F40040C8B997
:100B60001748008800F4804060B10A2C03D00020B0
:100B70001349088020E01248008840F400401049E2
:100B8000088019E00D2C06D10D48008840F4804003
:100B90000B49088010E00A480088C0F30D0009499D
:100BA0000C5407480088401C054908800846008806
:100BB000C72801DD0020088010BD0000004400406F
:100BC00008000020E400002021B1828942F4005294
:100BD000828104E082894DF6FF731A40828170475A
:100BE00070B50246002400230025002040F66A1656
:100BF000B14200D100BFC1F3421501F01F0301262D
:100C000006FA03F3012D02D19689334006E0022D46
:100C100002D1168A334001E0968A33400C12012635
:100C200006FA04F41688344013B10CB1012000E038
:100C3000002070BDF0B503460024002600250020EA
:100C400040F66A17B94200D100BF1846C1F34214FA
:100C500001F01F06012707FA06F5012C01D10C301F
:100C600004E0022C01D1103000E014301AB1076802
:100C70002F43076002E00768AF430760F0BD000044
:100C80002DE9FF4705460E460024A14600BFA046B9
:100C9000B08900B100BF2C8A24F44054F08804438A
:100CA0002C82AC8941F20C608443B08831890843BE
:100CB000718908430443AC81AC8A24F44074B08940
:100CC0000443AC826846FFF705FE2048854202D007
:100CD0001F48854202D1DDF80C9001E0DDF8089054
:100CE000A88900F4004040B109EBC90000EB0910ED
:100CF00031684900B0FBF1F707E009EBC90000EBF0
:100D0000091031688900B0FBF1F76420B7FBF0F0FF
:100D100004012009642101FB1078A88900F4004037
:100D200040B1322000EBC800B0FBF1F000F007004A
:100D3000044308E0322000EB08106421B0FBF1F01E
:100D400000F00F0004432C81BDE8FF870010014034
:100D50000014014001468888C0F30800704700BFB6
:100D6000FEE700BF7047000010B504466FF00400B6
:100D7000FFF79CFEE11704EB5171C1F3C701074A6D
:100D800011701046007800EB4001C1EBC0104FF627
:100D9000FF7101EAC0000249088010BD0000002078
:100DA0000200002070B504464FF4077094FBF0F089
:100DB000C6B24FF4077094FBF0F100FB114085B20E
:100DC00005E04FF4077000F009F8701EC6B2002E5F
:100DD000F7D115B1284600F001F870BD0146114A5F
:100DE00012884A434FF0E0235A6100229A611A4662
:100DF000126942F001021A6100BF4FF0E02210694F
:100E000000F001021AB100F48032002AF5D04FF050
:100E1000E022126922F001024FF0E0231A61002261
:100E20009A6170470200002000BF054A128802F054
:100E30004002002AF9D0C2B2014B1B1D1A80704734
:100E40000044004008B54FF4A060FFF717FDA8204C
:100E5000FFF78AFF4FF4E13000F07CF8FFF7AEFCBB
:100E60004FF480512D48FFF7A3FC4FF400512B485D
:100E7000FFF79EFC002006231A4605210090FFF78D
:100E80009BFA4FF4FA70FFF78DFF4FF4FA70FFF7FB
:100E900089FF23A0FFF7ECF93EE04FF480511F4893
:100EA000FFF786FC4FF400511C48FFF783FC4FF41A
:100EB000FA70FFF777FF4FF480511848FFF77AFC7C
:100EC0004FF400511548FFF773FC4FF4FA70FFF729
:100ED00069FF19A0FFF7CCF91B48008800F4004017
:100EE000B0F5004F18D1184A1288C2F30D01002046
:100EF0000CE000BF154A128802F04002002AF9D027
:100F0000134A125C114B1B1D1A80401C8842F0DBF7
:100F100000220D4B1A8000BFBFE70000000C02400A
:100F20006E6968616F2C366C6F7770616E206761D7
:100F300074657761790000003031323334353637EB
:100F400038390D0A0000000008000020004400406D
:100F5000E400002010B588B0044601210846FFF7E0
:100F600099FC01214804FFF7A5FC07220221224831
:100F7000FFF7FBFB072203211F48FFF7F6FB0C20BE
:100F8000069002208DF81C008DF81D0000208DF8C1
:100F90001E0001208DF81F0006A91748FFF79DFBD2
:100FA00002940020ADF80C00ADF80E00ADF8100072
:100FB000ADF814000C20ADF8120002A90F48FFF79D
:100FC0005FFE01210D48FFF7FFFD012240F2255190
:100FD0000A48FFF72FFE26208DF8040003208DF825
:100FE00005008DF8060001208DF8070001A8FFF725
:100FF00009FC08B010BD00000000024000440040A1
:101000004FF04070E1EE100A704700003C100008FD
:10101000000000201C000000C40100085810000857
:101020000000001064000000C4010008581000080F
:101030001C000020F4070000E00100080000000090
:101040000000000000000000000001020304010293
:10105000030406070809000000000000000000006B
:101060000000000000000000000000000000000080
:101070000000000000000000000000000000000070
:101080000000000000000000000000000000000060
:101090000000000000000000000000000000000050
:1010A0000000000000000000000000000000000040
:0C10B00000000000000000000000000034
:040000050800018965
:00000001FF
